:020000040000FA
:1000000030090020890200009102000093020000E4
:100010009502000097020000990200000000000015
:100020000000000000000000000000009B02000033
:100030009D020000000000009F020000A1020000DD
:10004000A3020000A5020000A7020000A902000010
:10005000AB020000151800003D230000B1020000B3
:10006000B3020000B5020000B7020000B9020000B0
:10007000BB020000BD020000BF020000C102000080
:10008000C3020000C5020000C7020000C902000050
:10009000CB020000CD020000CF020000D102000020
:1000A000D3020000D5020000D7020000D9020000F0
:1000B000DB020000DD020000DF020000E1020000C0
:1000C000E3020000E5020000E7020000E902000090
:1000D000EB020000ED020000EF020000F102000060
:1000E000F3020000F502000000000000F70200002B
:1000F000F9020000FB020000FD020000FF02000008
:1001000001030000030300000503000007030000D3
:100110000000000000000000090300000B030000C5
:100120000D0300000F030000110300001303000083
:100130001503000071230000190300001B030000D9
:1001400000000000000000000000000000000000AF
:100150001D0300001F030000210300002303000013
:10016000000000000000000000000000000000008F
:10017000000000000000000000000000000000007F
:10018000000000000000000000000000000000006F
:10019000000000000000000000000000000000005F
:1001A000000000000000000000000000000000004F
:1001B0002503000027030000290300002B03000093
:1001C0002D0300002F030000310300003303000063
:1001D0003503000037030000390300003B03000033
:1001E0003D0300003F030000410300000000000049
:1001F0000000000043030000450300004703000027
:10020000490300004B030000000000000000000054
:100210004D0300004F030000510300005303000092
:100220005503000057030000590300005B03000062
:100230005D0300005F030000610300006303000032
:100240006503000067030000690300006B03000002
:100250006D0300006F0300007103000073030000D2
:10026000750300007703000079030000DFF80CD06D
:1002700000F05CFB004800475532000030090020C8
:100280000138FDD1704700003C4880473C4800479A
:10029000FEE7FEE7FEE7FEE7FEE7FEE7FEE7FEE736
:1002A000FEE7FEE7FEE7FEE7FEE7FEE7FEE7FEE726
:1002B000FEE7FEE7FEE7FEE7FEE7FEE7FEE7FEE716
:1002C000FEE7FEE7FEE7FEE7FEE7FEE7FEE7FEE706
:1002D000FEE7FEE7FEE7FEE7FEE7FEE7FEE7FEE7F6
:1002E000FEE7FEE7FEE7FEE7FEE7FEE7FEE7FEE7E6
:1002F000FEE7FEE7FEE7FEE7FEE7FEE7FEE7FEE7D6
:10030000FEE7FEE7FEE7FEE7FEE7FEE7FEE7FEE7C5
:10031000FEE7FEE7FEE7FEE7FEE7FEE7FEE7FEE7B5
:10032000FEE7FEE7FEE7FEE7FEE7FEE7FEE7FEE7A5
:10033000FEE7FEE7FEE7FEE7FEE7FEE7FEE7FEE795
:10034000FEE7FEE7FEE7FEE7FEE7FEE7FEE7FEE785
:10035000FEE7FEE7FEE7FEE7FEE7FEE7FEE7FEE775
:10036000FEE7FEE7FEE7FEE7FEE7FEE7FEE7FEE765
:10037000FEE7FEE7FEE7FEE7FEE70000911700005C
:100380006D0200002DE9FE4F81EA030404F00044F1
:1003900021F0004100944FF0000B23F0004350EA9D
:1003A00001045ED052EA03045BD0C3F30A54C1F3E4
:1003B0000A552C44A4F2F3340194A0FB0254C1F377
:1003C000130141F48011C3F3130343F4801301FBC1
:1003D000024400FB034E840A970A44EA815447EA28
:1003E0008357A4FB076802958D0A05FB07854FEA32
:1003F000932C04FB0C542705029D4FEA065847EA4C
:100400001637B5EB08056EEB070C870E920E47EA20
:10041000811742EA8312A7FB0201B6EB0B0164EBE2
:1004200000042B0D43EA0C335E1844EB1C50DA46F3
:100430005146E7FB0201C5F313044FEA0B3343EACD
:1004400014534FEA0432019C43EA0603A4F10C045E
:100450000294009CCDE900B400F0D3F803B0BDE8ED
:10046000F08F00200146F9E70EB5C10F80EAE07079
:100470000844CA07002140F233438DE80E000A46C3
:100480000B4600F0BEF803B000BD00F0004230F0B3
:1004900000400AD0C10D01F56071C0F3160042EAB8
:1004A0000151C208400711437047002001467047C0
:1004B00001F0004330B421F0004150EA010206D0BF
:1004C0000A0DA2F56072C1F31301002A02DC30BCF0
:1004D00000207047440F44EAC104C100E01830BC5A
:1004E00000EBC25000F047B830B50B460146002083
:1004F0002022012409E021FA02F59D4205D303FAE6
:1005000002F5491B04FA02F52844151EA2F1010266
:10051000F1DC30BD2DE9F05F0546002092469B4698
:1005200088460646814640241BE028464146474609
:10053000224600F01CFA53465A46C01A914110D385
:1005400011461846224600F003FA2D1A67EB0108FF
:100550004F4622460120002100F0FAF917EB00096E
:100560004E41201EA4F10104DFDC484631462A46F4
:100570004346BDE8F09F0029A8BF7047401C4900D2
:1005800008BF20F00100704710B4B0FA80FC00FAF8
:100590000CF050EA010404BF10BC704749B1CCF123
:1005A000200421FA04F411FA0CF118BF01212143AF
:1005B0000843A3EB0C01CB1D4FEA00614FEA10206A
:1005C00042BF002010BC704700EBC350104400290C
:1005D000A4BF10BC7047401C490008BF20F00100B8
:1005E00010BC704710B5141E73F1000408DA401CEB
:1005F00041F1000192185B411A4301D120F0010042
:1006000010BD2DE9F04D92469B4611B1B1FA81F231
:1006100002E0B0FA80F22032904600F099F90446E8
:100620000F4640EA0A0041EA0B0153465A46084386
:1006300013D0114653EA010019D0C8F140025046C8
:1006400000F095F905460E4650465946424600F0E0
:100650007FF9084305D0012004E020463946BDE873
:10066000F08D0020054346EAE0762C4337430A9894
:100670006305E40AA0EB08000022FD0A44EA47549F
:100680000A3002D500200146E9E701051019694149
:10069000DDE9084500196941BDE8F04DA2E72DE903
:1006A000FE4F804681EA0300C00F0C46009021F007
:1006B000004123F00045B8EB0200A94105D24046B5
:1006C000214690461C460B46024623F0004010434C
:1006D00047D0270DC7F30A00C3F30A510290401A0E
:1006E000019040286BDAC3F3130040F4801B00989C
:1006F000924620B10023D2EB030A63EB0B0B019867
:100700005946C0F14002504600F022F906460D4617
:1007100050465946019A00F03AF910EB0800614141
:10072000002487EA115284EAE7731A4340D0009A02
:1007300062B3019A012A4FEA075215DC001B61EBF4
:1007400002014FF0004202EA0752CDE90042001CCC
:1007500041F5801132462B46FFF753FF03B0BDE849
:10076000F08F40462146F9E7001B61EB0201001CB7
:1007700041F5801300185B412018A2F5001747EBE4
:10078000030140EAD570B6196D4111E06D084FEADA
:10079000360645EAC0754FEA0752001B61EB0201BD
:1007A000001C41F5801149084FEA30000019514101
:1007B00032462B4603B0BDE8F04FFFF713BF009859
:1007C000012240000023D0EB020263EBE0730098AB
:1007D00021464FEAE074B8EB000061EB0401E9E761
:1007E00083F000435BE781F0004158E72DE9F04DCD
:1007F00081EA030404F0004B21F0004514464FF059
:10080000000A23F0004150EA050220D054EA010218
:100810001DD0C5F30A570246C5F31303C1F31300F5
:10082000C1F30A5640F4801543F48013A7EB060881
:10083000101BD64608F2FD3873EB050002D308F111
:10084000010801E092185B41B8F1000F03DA0020C3
:100850000146BDE8F08D00204FF480110646844625
:100860000EE0171B73EB050705D3121B63EB0503A3
:1008700006434CEA010C49084FEA300092185B41EC
:1008800050EA0107EDD152EA030012D082EA0400D7
:1008900083EA0501084305D0101BAB4106D20122B3
:1008A000002306E000224FF0004302E06FF0010257
:1008B00053101AEB06004CEB085110EB0A0041EB09
:1008C0000B01BDE8F04DFFF78DBEC1F30A52C1F335
:1008D000130140F2FF3341F480119A4202DA002002
:1008E0000146704740F233439A42A2F2334202DC9F
:1008F000524200F03CB800F02BB8000030B5041EA6
:1009000071F1000404DB4FF00044404264EB01014C
:10091000141E73F1000405DB1C464FF000435242E5
:1009200063EB0403994208BF904230BD064C074D6B
:1009300006E0E06840F0010394E8070098471034AF
:10094000AC42F6D3FFF796FC643A0000843A00000C
:10095000202A04DB203A00FA02F10020704791407F
:10096000C2F1200320FA03F3194390407047202A74
:1009700004DB203A21FA02F00021704721FA02F349
:10098000D040C2F120029140084319467047202A06
:1009900006DBCB17203A41FA02F043EAE07306E0A7
:1009A00041FA02F3D040C2F12002914008431946B7
:1009B000704730B58C1810F8012B12F00F0301D1DD
:1009C00010F8013B120906D110F8012B03E010F8D2
:1009D000015B01F8015B5B1EF9D101E001F8013B0D
:1009E000521EFBD1A142E6D3002030BD10B53F48D6
:1009F0003F49404B00880988401A00B200F131019C
:100A0000188163290DD25989014409B25981642999
:100A100002DD6421598104E06FF06302914200DA43
:100A20005A8100EE100A3449B3F90A20B8EEC00A20
:100A300091ED001A3149324C61EE001A00EE102A95
:100A4000D1ED000AB3F90C10B8EEC00A411A40EE1D
:100A5000801A00EE101AB8EEC02A94ED000A294C54
:100A600040EE021AC4ED001A01EE900A264CF8EE90
:100A7000E11A21EE212A01EE902AF8EEE11A00EEA9
:100A8000A12A01EE901AF8EEE11A00EE212A01EEF9
:100A9000900AF8EEE11A84ED002A1C4C21EE212A7E
:100AA00001EE902AF8EEE11A00EEA12A01EE901A6A
:100AB000F8EEE11A00EE212A01EE900AF8EEE11AB2
:100AC00084ED002A61EE211A01EE102AB8EEC11A57
:100AD00040EE811A00EE901A0D49F8EEE00A40EE61
:100AE000201AC1ED001A988110BD000000000020FE
:100AF0004E010020AC000020480000204C000020E7
:100B0000500000207C000020800000208400002095
:100B100088000020B348B44AB44990ED001A11EEA1
:100B2000103ADFEDB31A9FEDB32AB34893420FD2C8
:100B300011EE103A8B420BDAB04B93ED000A60EEE7
:100B4000010A90ED040A00EEA10A80ED040A01E01A
:100B500080ED042AAA4BD3ED000A10EE903A93429E
:100B60000FD210EE903A8B420BDAA64B93ED000AAF
:100B700060EE202A90ED050A02EEA10A80ED050A3A
:100B800001E080ED052AA04B93ED000A10EE103A2B
:100B900093420CD210EE102A8A4208DA9B4991ED5A
:100BA000002A62EE002A90ED062A02EEA12A984B56
:100BB00080ED062A9FED972A9749DFED982A026972
:100BC0009A4202DD80ED042A03E08A4201D9C0ED99
:100BD000042A42699A4202DD80ED052A03E08A4236
:100BE00001D9C0ED052A82699A4202DD80ED062A0C
:100BF00003E08A4201D9C0ED062A894AD0ED043AC1
:100C0000F6EE005AD2ED001A864A41EE813AC0ED66
:100C1000073AD0ED051A92ED001A834A41EE201AE8
:100C2000C0ED081A90ED063AD2ED000A7F4A00EEB8
:100C3000803AB1EE000A80ED093AD2ED000A7C4A12
:100C400043EE800AC0ED0A0A92ED001A794A01EEDD
:100C5000801A80ED0B1AD2ED001A774A43EE001A83
:100C6000C0ED0C1A92ED000A744A20EE205A80ED75
:100C70000D5A92ED000A724A60EE014AC0ED0E4A2A
:100C800092ED000A6F4A20EE214A80ED0F4A92ED64
:100C9000000A6D4A20EE203A90ED100A03EE250A74
:100CA00080ED100A92ED003A684A63EE013A90ED49
:100CB000113A03EEA53A80ED113AD2ED003A10EE6A
:100CC000102A23EEA16AD0ED123A9A4246EE253A56
:100CD000C0ED123A02DD80ED102A05E010EE102A78
:100CE0008A4201D9C0ED102A13EE102A9A4202DD81
:100CF00080ED112A05E013EE102A8A4201D9C0EDD9
:100D0000112A13EE902A9A4202DD80ED122A05E0A4
:100D100013EE902A8A4201D9C0ED122A90ED160AEC
:100D20004B4930EEC00A91ED002A4A4920EE020AF2
:100D3000B3EE042A60EE022AC0ED132A90ED170AE2
:100D400091ED003A444931EE400A20EE030A20EECC
:100D5000020A80ED140A90ED183AD1ED003A00F144
:100D6000580131EEC33A23EE233A23EE022A80EDF6
:100D7000152AC1EC030AD0ED100A75EE200A30EEF8
:100D8000A21A80ED191AD0ED110A74EEA00A70EEC5
:100D9000800AC0ED1A0A90ED120A71EE601A34EE64
:100DA000000A30EE020A80ED1B0A71EE801A2B4811
:100DB000C0ED001A71EE201A294871EEC01AC0ED7C
:100DC000001AF1EE411A274871EEE01A70EEC10ADE
:100DD00071EEC01A30EE800AC0ED001A224880ED94
:100DE000000A7047600000200000A0C00000A04082
:100DF0000AD7233C00000000AC0000201C000020AB
:100E00006400002024000020680000202C00002046
:100E10000000FA430000FA430000FAC30000FAC3DE
:100E2000040000200C00002014000020A801002075
:100E3000AC010020B00100200800002010000020BC
:100E40001800002020000020280000203000002092
:100E500034000020380000203C0000206C000020FE
:100E60007000002074000020780000201C4A1D48FB
:100E70001D4B917990ED000AA1B91C490878401CDE
:100E8000C0B20870D1ED010A052870EE800AC1EDEC
:100E9000010A07D1B1EE041A0120C0EE811AC3ED98
:100EA000001A90711248D0ED000A124890ED001A15
:100EB000114870EEC10AC0ED000A1048D0ED000ADA
:100EC0000F4890ED001A0F4870EEC10AC0ED000AFD
:100ED000D3ED000A0C4830EE600A80ED000A70473E
:100EE0006C060020980100205C00002020010020FA
:100EF0009001002054000020600000209401002098
:100F000058000020640000206800002010B501F0A7
:100F10001FFF02F0C9F802F03BF802F053F802F0AC
:100F200009F801F029FF01F0FBFF02F0D7F801F00A
:100F3000E5FE012010BD000070B5002204462DED35
:100F4000028B10464B1E04E0255C401C2A44D2B2A2
:100F5000C0B29842F8DB601810F8010C904231D111
:100F6000A0787E4B01217C4AA3F12C0551281DD18C
:100F70002079F8B1012825D16079E870A079E67967
:100F800046EA00202881207A667A46EA00206881B5
:100F9000A07AE67A46EA0020A881207B667B46EAB2
:100FA0000020E881A07B287111711970A078522867
:100FB0000BD014E06079E870A0796871E079A871CD
:100FC000207A2871BDEC028B70BD207900284BD0AF
:100FD0000128F7D1B4F8050040BA68825171A078B1
:100FE000532847D05428EDD1207900287ED00128FD
:100FF000E8D16079A179000200B20843FFF734FA22
:101000009FED578B53EC182BFFF7BCF9FFF750FA05
:101010002864E079217A000200B20843FFF724FA3D
:1010200053EC182BFFF7AEF9FFF742FA6864607AC9
:10103000A17A000200B20843FFF716FA53EC182B0E
:10104000FFF7A0F9FFF734FAA864E07A217B0002E9
:1010500000B20843FFF708FA53EC182BFFF792F998
:10106000FFF726FAE864ADE7B4F8050040BA288235
:101070005970A7E7207900B30128A3D16079A1793D
:1010800041EA00206883E079217A41EA0020A883C0
:10109000607AA17A41EA0020E883E07A217B41EA84
:1010A0000020E884607BA17B41EA00202885E07B6A
:1010B000217C41EA0020688584E76079A17941EAD2
:1010C0000020A882E079217A41EA0020E882607A53
:1010D000A17A41EA00202883E07A217B41EA0020BE
:1010E0002884607BA17B41EA002000E006E0688460
:1010F000E07B217C41EA0020A88463E76079A17944
:10110000000200B20843FFF7AFF99FED178B53ECD5
:10111000182BFFF737F9FFF7CBF96863E079217AED
:10112000000200B20843FFF79FF953EC182BFFF7BA
:1011300029F9FFF7BDF9A863607AA17A000200B22D
:101140000843FFF791F953EC182BFFF71BF9FFF752
:10115000AFF9E86336E700006C0600206801002064
:101160002D431CEBE2361A3F7B14AE47E17A843FF5
:1011700030B4234C234A0025A17871B1012913D042
:10118000022917D003291BD022461E4B12780429AE
:1011900013441DD0052929D030E0AA282ED10121E1
:1011A000A170107030BC7047AA2827D10221A1700D
:1011B0005070F7E7F12821D20321A1709070F1E778
:1011C0002D281BD20421A170D07060702570E9E732
:1011D000617899B1491E11F0FF016170187102F137
:1011E00001022270DED10520A070DBE7A570187126
:1011F000521D30BCD1B20348FFF79EBEA570D1E7A7
:101200003C010020F0060020154810B50188154863
:10121000154B891E008881420BDA144A1178491C4B
:10122000C9B21170142904D90121D9720021117099
:1012300002E0D97A012911D114280FD202F0BEF9A7
:101240004FF47A6003461A46114602F075F94FF0E2
:101250008070806C8068BDE81040004710BD0000C1
:10126000000000204E0100206C0600201C01002020
:1012700070B51B4801681B4A1140A1F18052B2F5BC
:10128000A02202BF006880B2002814D10A20FEF715
:10129000F7FF154D032045F8FC0F0A20FEF7F0FF7D
:1012A00012480024C0F8C0420A20FEF7E9FF2C6073
:1012B0000A20FEF7E5FF0F4C0D48C4F88000A06936
:1012C00010F0010FFBD10C4800F0DEF90220FEF710
:1012D000D7FFA06910F0010FFBD1A06970BD00001D
:1012E00000E00F400000FF7000D00F4000E00A4017
:1012F00001007BE300F00A40005800F00B4B4FEA7E
:10130000911CC3F804C0C1F383019960910808BF20
:1013100070475A6940F8042B491E08BF70479A6805
:10132000002AF6D15A68521C5A60F2E700F00A40CF
:1013300040F82120704700001649042804BF0868BF
:1013400040F4803018D0052804BF086840F400300D
:1013500012D0062812D00F2815D0102838BF704799
:10136000103800F01F01012202FA01F142090A4877
:1013700050F822000160704708607047086840F428
:101380008020086070474FF0E020016941F00201C1
:101390000161704724ED00E02C39000030B40A4DA3
:1013A0002A680A4B9A421CBFD5F800C0002207D019
:1013B0005CF8224043F82240521C9B2AF8D32B6051
:1013C00043F8201030BC704708ED00E00004002016
:1013D00070B55B4B59491A788854521CD0B21870BA
:1013E0000C780022552C44D10B2874D348789FEDFB
:1013F000550A512806D00124534D52283AD053287B
:1014000037D169E0C8788C78000200B2204300EE42
:10141000900AF8EEE00A20EE801AF3EE000A61EE80
:10142000201A9FED4A1A61EE811AC3ED041A487919
:101430000C79000200B2204301EE900AF8EEE11AA6
:1014400061EE801A61EEA01A61EE811AC3ED051AF1
:10145000C8798979000200B2084301EE900AF8EEDB
:10146000E11A21EE800A20EE200A20EE010A83ED27
:10147000060A61E0C8788E78000200B2304300EEC0
:10148000900AF8EEE00A20EE801ADFED310A21EE34
:10149000201A83ED071A48790E79000200B2304312
:1014A00001EE100AB8EEC11A21EE001A21EE201A40
:1014B00083ED081AC8798979000200B2084301EE69
:1014C000100AB8EEC11A21EE000A20EE200A83EDC0
:1014D000090AEC7030E030E0C8788E78000200B283
:1014E000304300EE900AF8EEE00A20EE801ADFEDBD
:1014F000190A21EE201A83ED011A48790E790002AB
:1015000000B2304301EE100AB8EEC11A21EE001A03
:1015100021EE201A83ED021AC8798979000200B2FF
:10152000084301EE100AB8EEC11A21EE000A20EEBF
:10153000200A83ED030AAC701A7070BD22070020E8
:101540008C010020000000386C060020CDCC1C412E
:101550000000FA440000344370B54048404CB0F9F4
:10156000002002F13100632852D23E48B0F9000059
:1015700010F1320F4CDD32284ADA21884FF496758B
:10158000114409B2218063886E4203441BB2638018
:10159000A94201DD258002E0B14200DA2680AB429B
:1015A00001DD658002E0B34200DA66802E4900EE7C
:1015B000102AD1ED000A2D49B8EEC00A91ED001AAB
:1015C000B4F9001020EE800A00EE901AF8EEE00A5E
:1015D00001EE200ABDEEC00A10EE101A00EE100A4D
:1015E000A18023492348B8EEC00AD1ED000A90ED4E
:1015F000001AB4F9020020EE800A00EE900AF8EE1C
:10160000E00A01EE200ABDEEC00A10EE100AE080EA
:10161000B4F90610B4F904000A18524200EE102A78
:10162000154AB8EEC00A82ED000A421A00EE102AEE
:10163000124AB8EEC00A82ED000A0A1A00EE102A19
:101640000F4A0844B8EEC00A82ED000A00EE100A04
:101650000C48B8EEC00A80ED000A70BD48010020B9
:10166000AC0000204A010020400000209C00002027
:1016700044000020A00000208C00002090000020EA
:101680009400002098000020C0F307230C49C0B24A
:10169000194401F07043C1F3130143EA411141EAD7
:1016A000800040F0007181B001220A6000220092A7
:1016B0000098401C00901028FAD30A6001B07047CF
:1016C00000E50F4070B5264E3078002847D0254CF5
:1016D0002078401C20706078401C6070A078401C0E
:1016E000A070E078401CE070B078002548B1F07838
:1016F00038B1F07928B1F570B570FFF7B7FBFFF797
:1017000009FA01F0B5FD184803681848026818483E
:1017100001681848006801F00FFF2078022802D104
:10172000257001F061FF6078042807D16570307979
:1017300020B1707A10B13571FFF70EFFA07807283D
:1017400009D1A570707930B1307A20B17571FFF789
:101750004DF9FFF759FDE078642800D1E57070BDC0
:101760006C060020280100203801002034010020F0
:10177000300100202C01002010B501460F20FFF79A
:101780000DFE4FF0E020016941F00201016110BD42
:101790001648016841F47001016016491448086751
:1017A00015480866154808661548086700204FF474
:1017B0007A72401C9042FCD31248086612480867AF
:1017C0000020401C9042FCD310480866086D40067B
:1017D000FCD50F4808664FF0C0700867002042F241
:1017E0001071401C8842FCD37047000088ED00E077
:1017F0001028800700E00F40D13A8E07422D9E014D
:1018000000288001420D9E0100088001420DDE018A
:101810004205DE012DE9F04F4FF0807089B040693C
:101820000121C26CF848904701464FF08070406932
:10183000026DF54890474FF080704069416BF24867
:101840008847C2B20021F148F14FF24CDFF8C8835B
:10185000DFF8C8A39FEDF20ADFEDF20A103AB7EE07
:10186000001A682A43D2DFE802F05CFEFDFCFBFAB6
:10187000F94242424242424242424242F8F7F6F5BF
:10188000F4F34242424242424242F2F1F0EFEEEDC4
:10189000ECEBEAE942424242424242434B4F545847
:1018A00034424242424242424242E8E7E6E5E4E351
:1018B000E2E1E0DF424242424242DEDDDCDBDAD9F5
:1018C000D8D7D6D5424242424242D4D3D2D1D0CF49
:1018D000CECD01F073FE4FF47A6003461A461146EE
:1018E00001F02AFE4FF08070806C8068804750E2E3
:1018F0000122C27101724172CBA000F085FD48E265
:10190000C1710172012102E0C171012203E0417243
:101910003FE20122C2710272F9E70121C171017235
:10192000F5E7C5480068FEF7B0FD0546C3480E461A
:101930000068FEF7AAFD41EC100BCDE9005653EC10
:10194000102BBFA000F060FD3868FEF79EFD064634
:101950000F462068FEF799FD04460D46D8F80000B2
:10196000FEF793FD80468946DAF80000FEF78DFD0C
:101970008246BC488B460068FEF787FD41EC100BA1
:1019800004A953EC102B81E8F000B748CDE9028997
:10199000CDE900AB00F038FDB4480068FEF775FDF6
:1019A0008246B3488B460068FEF76FFD8046B1481B
:1019B00089460068FEF769FD0646AF480F46006895
:1019C000FEF763FD0446AD480D460068FEF75DFD79
:1019D0008DE8F00F41EC100BA94853EC102B00F0F0
:1019E00013FDA8480068FEF750FD8246A6488B46C6
:1019F0000068FEF74AFD8046A44889460068FEF765
:101A000044FD31E068E361E34FE348E336E32FE36D
:101A10001DE316E304E3FDE2EBE2E4E2D2E2CBE213
:101A2000B9E2B2E2A0E299E287E280E26EE267E226
:101A300055E24EE23CE235E223E21CE20BE205E233
:101A4000F4E1EEE1DDE1D7E1C6E1C0E1AEE1A7E11D
:101A500092E1CCE0BAE0B3E0A1E09AE088E081E076
:101A60006FE068E054E04DE0064689480F460068A4
:101A7000FEF70BFD044687480D460068FEF705FD9E
:101A80008DE8F00F41EC100B834853EC102B00F065
:101A9000BBFC82480068FEF7F8FC064680480F460B
:101AA0000068FEF7F2FC04467E480D460068FEF72B
:101AB000ECFC8DE8F00041EC100B7BA053EC102BFC
:101AC00000F0A2FC81480068FEF7DFFC80468048F9
:101AD00089460068FEF7D9FC06467E480F46006836
:101AE000FEF7D3FC04467C480D460068FEF7CDFCAB
:101AF0008DE8F00341EC100B78A053EC102B00F0B4
:101B000083FC46E16748D0ED000A30EE800A04E02D
:101B10006448D0ED000A30EEC00A80ED000A10EEF5
:101B2000100AFEF7B2FC41EC100B77A053EC102B1F
:101B300000F06AFC2DE15A48D0ED000A30EE800A30
:101B400004E05748D0ED000A30EEC00A80ED000AEC
:101B500010EE100AFEF799FC41EC100B6FA053EC4D
:101B6000102BE5E74D48D0ED000A30EE800A04E086
:101B70004A48D0ED000A30EEC00A80ED000A10EEAF
:101B8000100AFEF782FC41EC100B69A053EC102BFD
:101B9000CEE72A48D0ED000A30EE800A04E027485C
:101BA000D0ED000A30EEC00A80ED000A10EE100AF7
:101BB000FEF76BFC41EC100B62A053EC102BB7E767
:101BC0001D48D0ED000A30EE800A04E01A48D0ED3E
:101BD000000A30EEC00A80ED000A10EE100AFEF78F
:101BE00054FC41EC100B5DA053EC102BA0E76149B5
:101BF00041F288320888643080B20880904200D375
:101C00000A800988C2E0000000C000406C06002085
:101C10003400002020000020080000201C000020CC
:101C2000CDCCCC3D0AD7233C617474207475726EA0
:101C3000206F6E0A000000005800002054000020B1
:101C40006F6666736574526F6C6C3A252E31662030
:101C5000206F666673657450697463683A252E3127
:101C600066200A0004000020D0390000380000205F
:101C70002800002010000020240000200C0000207C
:101C80007C3900003C0000203000002018000020BB
:101C90002C000020140000201C3A000050000020FE
:101CA0004C000020480000206B705F683A252E32FF
:101CB0006620206B695F683A252E346620206B64AD
:101CC0005F683A252E32660A00000000A00000205E
:101CD0009C00002044000020400000206B705F78D2
:101CE0003A252E326620206B705F793A252E3266B7
:101CF00020206B695F783A252E326620206B695F61
:101D0000793A252E326600004E6F77206B705F683F
:101D100020697320252E32662E0D0A004E6F772023
:101D20006B695F6820697320252E32662E0D0A00CC
:101D30004E6F77206B645F6820697320252E3266B2
:101D40002E0D0A006F6666736574526F6C6C2069A5
:101D50007320252E31662E0D0A0000006F66667313
:101D60006574506974636820697320252E31662E6E
:101D70000D0A000002000020E0490888643880B2A3
:101D80000880642801D86420088081B2DCA000F0BB
:101D90003BFBFFF76DFA09B0BDE8F04F01F066BC00
:101DA000DD48D0ED000A30EE800A04E0DA48D0EDDC
:101DB000000A30EEC00A80ED000A10EE100AFEF7AD
:101DC00064FB41EC100BD5A053EC102BB0E6DAED20
:101DD000000A30EE800A03E0DAED000A30EEC00AB5
:101DE0008AED000A10EE100AFEF74FFB41EC100BD3
:101DF000D0A053EC102B9BE6D8ED000A30EE800A01
:101E000003E0D8ED000A30EEC00A88ED000A10EEBB
:101E1000100AFEF73AFB41EC100BCCA053EC102B50
:101E200086E6D7ED000A30EE800A03E0D7ED000A1F
:101E300030EEC00A87ED000A10EE100AFEF725FB0F
:101E400041EC100BC8A053EC102B71E694ED000A86
:101E500030EE200A03E094ED000A30EE600A84EDD3
:101E6000000A10EE100AFEF710FB41EC100BC5A0A3
:101E700053EC102B5CE6CA48D0ED000A30EE800A25
:101E800004E0C748D0ED000A30EEC00A80ED000A39
:101E900010EE100AFEF7F9FA41EC100BC1A053EC5A
:101EA000102B45E6C548D0ED000A30EE800A04E06C
:101EB000C248D0ED000A30EEC00A80ED000A10EEF4
:101EC000100AFEF7E2FA41EC100BBDA053EC102B08
:101ED0002EE6C148D0ED000A30EE800A04E0BE488C
:101EE000D0ED000A30EEC00A80ED000A10EE100AB4
:101EF000FEF7CBFA41EC100BB8A053EC102B17E611
:101F0000BE48D0ED000A30EE800A04E0BB48D0EDB8
:101F1000000A30EEC00A80ED000A10EE100AFEF74B
:101F2000B4FA41EC100BB6A053EC102B00E6BC4801
:101F300090ED000A30EE200A04E0B94890ED000A66
:101F400030EE600A80ED000A10EE100AFEF79DFAEE
:101F500041EC100BB3A053EC102BE9E5B94890ED20
:101F6000000A30EE010A04E0B64890ED000A30EEB7
:101F7000410A80ED000A10EE100AFEF786FA41ECE5
:101F8000100BB1A053EC102BD2E5B548D0ED000AF0
:101F900030EE800A04E0B248D0ED000A30EEC00A0C
:101FA00080ED000A10EE100AFEF76FFA41EC100BFC
:101FB000ACA053EC102BBBE5B04890ED000A30EE1E
:101FC000010A04E0AD4890ED000A30EE410A80EDD0
:101FD000000A10EE100AFEF758FA41EC100BA8A008
:101FE00053EC102BA4E5AD48D0ED000A30EE800A8A
:101FF00004E0AA48D0ED000A30EEC00A80ED000AE5
:1020000010EE100AFEF741FA41EC100BA4A053ECBD
:10201000102B8DE5A94890ED000A30EE200A04E06F
:10202000A64890ED000A30EE600A80ED000A10EE3E
:10203000100AFEF72AFA41EC100BA1A053EC102B6A
:1020400076E5A648D0ED000A30EE800A04E0A34809
:10205000D0ED000A30EEC00A80ED000A10EE100A42
:10206000FEF713FA41EC100B9DA053EC102B5FE52B
:10207000A048D0ED000A30EE800A04E09D48D0ED83
:10208000000A30EEC00A80ED000A10EE100AFEF7DA
:10209000FCF941EC100B98A053EC102B48E59B4841
:1020A000D0ED000A30EE800A04E09848D0ED000A36
:1020B00030EEC00A80ED000A10EE100AFEF7E5F9D6
:1020C00041EC100B92A053EC102B31E59548D0ED6C
:1020D000000A30EE800A04E09248D0ED000A30EEAB
:1020E000C00A80ED000A10EE100AFEF7CEF941ECAE
:1020F000100B8DA053EC102B1AE5000002000020FD
:102100004E6F77207468726F74746C6520697320E9
:1021100025642E0D0A000000040000204E6F772079
:102120006B705F726F6C6C20697320252E32662E87
:102130000D0A00004E6F77206B695F726F6C6C2028
:10214000697320252E34662E0D0A00004E6F77200D
:102150006B705F6779726F5F726F6C6C2069732050
:10216000252E32662E0D0A004E6F77206B645F6756
:1021700079726F5F726F6C6C20697320252E3266E6
:102180002E0D0A004E6F77206B695F6779726F5F63
:10219000726F6C6C20697320252E32662E0D0A003A
:1021A0000C0000204E6F77206B705F70697463685D
:1021B00020697320252E32662E0D0A00240000208F
:1021C0004E6F77206B695F70697463682069732054
:1021D000252E34662E0D0A00100000204E6F772049
:1021E0006B705F6779726F5F706974636820697381
:1021F00020252E32662E0D0A000000003800002037
:102200004E6F77206B645F6779726F5F706974637C
:102210006820697320252E32662E0D0A000000000A
:10222000280000204E6F77206B695F6779726F5FBF
:10223000706974636820697320252E32662E0D0A3A
:1022400000000000140000204E6F77206B705F7953
:10225000617720697320252E32662E0D0A0000005A
:102260002C0000204E6F77206B695F7961772069C1
:102270007320252E34662E0D0A0000001800002061
:102280004E6F77206B705F6779726F5F796177202F
:10229000697320252E32662E0D0A00003C000020B6
:1022A0004E6F77206B645F6779726F5F796177201B
:1022B000697320252E32662E0D0A000030000020A2
:1022C0004E6F77206B695F6779726F5F79617720F6
:1022D000697320252E32662E0D0A00004000002072
:1022E0004E6F77206B705F7820697320252E3266E1
:1022F0002E0D0A00440000204E6F77206B705F792E
:1023000020697320252E32662E0D0A009C000020C5
:102310004E6F77206B695F7820697320252E3266B7
:102320002E0D0A00A00000204E6F77206B695F79A8
:1023300020697320252E32662E0D0A0070B54FF0ED
:1023400080740A4D60690121C26C2846904701469D
:102350006069026D284690476069416B284688474E
:10236000BDE87040C0B2FFF733B8000000D00040B5
:1023700070B54FF080740A4D60690121C26C284627
:10238000904701466069026D284690476069416B3D
:1023900028468847BDE87040C0B2FEF7E9BE00009D
:1023A00000100140C16A21F01001C16270470000B5
:1023B000124A10B5104B12684FF0080C104C224016
:1023C000A2F18054B4F5202408BF0E4B002253F82C
:1023D0003240844203D103EBC200446803E0521C44
:1023E0006245F4D300242046FEF7D8FF2046BDE81E
:1023F0001040FEF7A1BF0000F037000000E00F40E2
:102400000000FF70303800000FB4054B10B503A971
:10241000044A029800F0DAF810BC5DF814FB0000E2
:10242000292D0000B401002002E008C8121F08C1D5
:10243000002AFAD170477047002001E001C1121F45
:10244000002AFBD1704700002DE9FF5F82B0002118
:10245000DDE90430020DDDF840B0034318D044F646
:102460001050A2F2FF3242431514119801281FD0D8
:10247000A5EB0B00401C5FEA000A4FF000064E4F30
:10248000DFF83891B046504615D5CAF1000413E084
:10249000119801244AA3012801D16FEA0B01029887
:1024A000119AC0E90031C0E9024206B0BDE8F09FD0
:1024B000CBF10000DFE704460021404A491842EB17
:1024C0000450CDE9001012E0E00707D032463B4649
:1024D00040464946FDF756FF8046894632463B4610
:1024E00010461946FDF74EFF06460F466410002CB5
:1024F000EAD1DDE90401DDE90023BAF1000F06DAD3
:10250000FDF740FF42464B46FDF73CFF05E0FEF776
:102510006DF942464B46FEF769F904460E46002225
:10252000284BFEF7EBF903D84FF0FF30014607E0E8
:102530000022254B20463146FEF7B1F8FEF7C5F9DB
:10254000102409E0002C0ADB0A220023FDF7E2FF39
:10255000039B30321A55641E50EA0102F2D1641C0A
:10256000039AC4F111031444119A012A03D00122E1
:1025700008430DD10AE0084304D000204FF0110BAE
:10258000119072E7A3EB0B056D1E0DE05B4504DDBA
:102590004FF0000205F1010504E003DA4FF00002FC
:1025A000A5F10105002AECD002981199C0E9023189
:1025B000C0E9004579E70000000014400000F03F4A
:1025C000300000000000F0430000E03F2DE9FF4F25
:1025D00095B09B468946064600250FE2252877D10F
:1025E00000242746F84A0121059400E0044316F828
:1025F000013F203B01FA03F01042F7D130782A283E
:1026000011D06FF02F033078A0F13002092A16D8CC
:10261000059A44F0020402EB820203EB42021044EA
:10262000761C0590EFE759F8042B0592002A03DA8F
:10263000504244F40054059044F00204761C307873
:102640002E2816D116F8010F44F004042A280DD0C4
:102650006FF02F023078A0F13003092B09D807EB77
:10266000870302EB4303C718761CF3E759F8047B92
:10267000761C30786C280FD006DC4C2817D06828E0
:102680000DD06A2814D104E0742810D07A280FD114
:102690000DE044F400140AE044F4801401E044F432
:1026A00040147278824202D104F58014761C761CA4
:1026B000307866280BD013DC582877D009DC002846
:1026C00075D04528F6D04628F4D047281AD19DE188
:1026D00018E0632835D0642879D0652812D195E1B7
:1026E000702873D008DC6728F1D069286FD06E2875
:1026F0000DD06F2806D1B5E073282CD0752875D081
:10270000782874D05A46179990476D1C75E1C4F328
:102710000250022809D003280DD0D9F8001004284F
:102720000DD00D6009F1040967E1D9F80010EA172E
:10273000C1E90052F6E7D9F800100D80F2E70D70FC
:10274000F0E719F8041B8DF8001000208DF8010047
:10275000EA46012003E059F804AB4FF0FF3061076F
:102760004FF0000102D40DE008F101018846B942A2
:102770000FDA8045F8DB1AF808100029F4D108E0D8
:1027800008F1010188468142FADB1AF80810002995
:10279000F6D105985B46A0EB080721463846179A04
:1027A00000F094FA284400EB080507E04DE029E129
:1027B0000DE01AF8010B5A4617999047B8F1010835
:1027C000F7D25B4621463846179A13E142E00A22C7
:1027D0000092C4F302524FF0000A022A08D059F8BE
:1027E00004CB032A4FEAEC710AD00DE029E02AE07D
:1027F00009F1070121F00702F2E802C1914609E060
:102800000FFA8CFC4FEAEC71042A03D14FFA8CFCCE
:102810004FEAEC71002907DA0A460021DCF1000CCE
:1028200061EB02012D2202E0220504D52B228DF856
:102830000420012203E0E20701D02022F7E79046BE
:1028400059E00A2102E010220DE010214FF0000AA9
:1028500000910BE010224FF0000A44F00404082716
:10286000009203E008224FF0000A0092C4F30252E3
:10287000022A05D059F804CB0021032A08D009E028
:1028800009F1070121F00702F2E802C1914605E0D3
:102890001FFA8CFC042A01D10CF0FF0C4FF0000849
:1028A000220728D5702806D0009B83F0100353EA36
:1028B0000A0305D00EE040228DF80420012208E032
:1028C0005CEA010206D030228DF804208DF8050064
:1028D00002229046009B83F0080353EA0A030AD1C0
:1028E0005CEA010201D1620705D530228DF804208F
:1028F0004FF001087F1E582804D034A003900EA882
:1029000002900DE036A0F9E753466046009AFDF7C5
:1029100001FE84460398825C0298401E0290027079
:102920005CEA0100F0D1029806A9081A00F1200A19
:10293000600702D524F4803400E00127574502DD0A
:10294000A7EB0A0000E0002000EB0A0100900598C8
:102950004144401A0590E00306D45B462146179A8D
:10296000059800F0B3F90544002706E001A85A468F
:10297000C05D179990476D1C7F1C4745F6DBE0034F
:102980000CD55B462146179A059800F09FF905443F
:1029900004E030205A46179990476D1C0099481E54
:1029A00000900029F5DC08E0029802995A46007868
:1029B000491C0291179990476D1CBAF10001AAF1C8
:1029C000010AF1DC65E100000928010030313233F1
:1029D000343536373839616263646566000000005B
:1029E0003031323334353637383941424344454645
:1029F0000000000000F058F90544761C30780028EB
:102A00007FF4ECAD19B02846BDE8F08F620700D422
:102A1000062709F1070222F0070CFCE80223E14631
:102A200003F000485FEA080C02D00FF2702C0DE0B2
:102A30005FEA045C02D50FF2682C07E05FEAC47C11
:102A400002D00FF2602C01E0AFF2700C4FF0FF38B3
:102A500023F00043CDF850C065280CD006DC452893
:102A600009D046281DD047283DD13DE0662818D022
:102A700067287ED138E00021112F01DB112000E012
:102A8000781CCDE9000106A90EA8FFF7DDFCDDE901
:102A90000F010E9A03910021009207F1010A04919F
:102AA0004DE04FF000400097CDE9011006A90EA8B7
:102AB000FFF7CAFCDDE90F0203920E9B1199002279
:102AC000DDF80CA00093049211B9791C00EB010A07
:102AD000B7EB0A0004D4C0F1FF3007F1010A0490FB
:102AE000AAEB0700019044E0012F00DA0127002142
:102AF000112F01DD112000E03846CDE9000106A9C3
:102B00000EA8FFF7A1FCDDE90F010E9A0391002149
:102B100004910092BA4621070CD40399514500DA7A
:102B20008A46BAF1010F05DD009AAAF10101515C54
:102B3000302908D0B84202DA10F1040F06DA012178
:102B4000CDE9011015E0AAF10101E9E7002805DC53
:102B5000049901440491AAEB000102E0411C514593
:102B600000DD8A460499401A401C01904FF0004055
:102B70000290200704D40198504501DBCDF8048071
:102B800000208DF84F0002980DF14F07B0F1004F73
:102B900025D02B200E9002984FF0020800280CDA66
:102BA000404202902D200E9007E00A210298FDF786
:102BB0009BFC3031029007F8011DB8F10001A8F12B
:102BC0000108F2DC02980028EFD1791E0E980870F7
:102BD000307800F0200040F0450007F8020D12A800
:102BE000C01B00F107081498007800B1012000EB29
:102BF0000A01019801EBE07105984144401A401E1A
:102C00000590E00306D45B462146179A059800F02C
:102C10005DF805441498007818B15A461799904702
:102C20006D1CE00324D55B462146179A059800F0F9
:102C30004DF805441CE00498002807DBDDE903019A
:102C4000884203DD0098405C179901E01799302015
:102C50005A469047049805F10105401C04900198DC
:102C6000401E019004D12E205A46179990476D1CA2
:102C7000BAF10001AAF1010ADDDC05E017F8010B49
:102C80005A46179990476D1CB8F10001A8F1010848
:102C9000F4DC5B462146179A0598ABE62D00000050
:102CA0002B000000200000002DE9F0410446002523
:102CB0001E461746880404D405E039462020B04754
:102CC0006D1C641EF9D52846BDE8F0812DE9F04160
:102CD000044600251E469046C80301D5302700E073
:102CE0002027880404D505E041463846B0476D1CCE
:102CF000641EF9D52846BDE8F081000010B5094CE6
:102D0000002202212046FEF713FB00220821204664
:102D1000FEF70EFB20460422BDE810401146FEF7E8
:102D200007BB00000050024070B5084E05464FF04A
:102D300080746069016B304688470028F9D060696B
:102D4000E9B2C26B30469047284670BD00C00040D3
:102D500010B54FF08074A06F00688047A06F0069C5
:102D60008047606CC16D03488847A06C4068BDE82F
:102D700010400047400500C170B54FF080744C4DC5
:102D8000606C816928468847606CD0F88C102846B2
:102D900088470028F8D0206F406C804774220021BB
:102DA0004448FEF7ABFA4348434990ED000A81EDF1
:102DB000000A424990ED010A81ED000A404990ED78
:102DC000020A81ED000A3F4990ED030A81ED000AF5
:102DD0003D4990ED040A81ED000A3C4990ED050A59
:102DE00081ED000A3A4990ED060A81ED000A394961
:102DF00090ED070A81ED000A374990ED0B0A81ED4D
:102E0000000A364990ED0C0A81ED000A344990ED34
:102E10000D0A81ED000A334990ED0E0A81ED000A9A
:102E2000314990ED0F0A81ED000A304990ED100A0A
:102E300081ED000A2E4990ED110A81ED000A2D491D
:102E400090ED120A81ED000A2B4990ED130A81EDF5
:102E5000000A2A4990ED140A81ED000A284990EDF4
:102E6000150A81ED000A274990ED160A81ED000A46
:102E7000254990ED170A81ED000A244990ED1A0AC0
:102E800081ED000A224990ED180A81ED000A2149DE
:102E900090ED1B0A81ED000A90ED190A1E4981EDA3
:102EA000000A90ED1C0A1D4880ED000A70BD00006C
:102EB000005800F07C06002054000020580000203C
:102EC000040000200C000020140000201C00002042
:102ED000240000202C00002008000020100000200A
:102EE00018000020200000202800002030000020D2
:102EF00034000020380000203C0000204800002062
:102F00004C00002050000020400000204400002021
:102F10009C000020A0000020A4000020A8000020A9
:102F2000034800218171C172C17101724172704701
:102F30006C06002070B54FF08074606C8169124897
:102F40008847206A4FF040261C21826B304690470C
:102F5000206A0A23012245691C213046A847606C7B
:102F600081690948401D8847206A084D1021826BFD
:102F700028469047206A0A23012244692846A4462D
:102F8000BDE8704010216047000800F0005002408A
:102F900070B54FF08074094D606C81692846884790
:102FA000606CD0F88C10284688470028F8D0206A3A
:102FB0000E21C26BBDE8704001481047050800F0C3
:102FC0000050024070B54FF080742F4D606C8169E5
:102FD00028468847606CD0F88C102846884700281F
:102FE000F8D0606C294D816928468847606CD0F81C
:102FF0008C10284688470028F8D0606C416E4FF44A
:10300000B0108847206A816E21488847206A816E07
:1030100020488847206A816E1F488847206A816E51
:103020001E488847206AF021426C1D489047206B5B
:103030001C4D00224368402128469847206B0022FF
:103040008021436828469847206B44F62066324624
:103050008368402128469847206B32468021836848
:1030600028469847206B01220F21C36A28469847BB
:10307000206B4021026928469047206B802102691D
:103080002846BDE870401047004000F0010800F0FD
:1030900004180100041C01000410010004140100C4
:1030A000005000400080024010B54FF08074606C0A
:1030B000006E8047C821B0FBF1F0A16B49698847D9
:1030C000A06BC06880470448FEF756FBA06B4068C1
:1030D000BDE8104000470000C51600002DE9F04192
:1030E0004FF08074606C81694C488847606C8169DE
:1030F0004B488847206A816E01208847206A816E8C
:1031000040F201408847206A0321426D4FF0402081
:103110009047606C006E804701466069414F4FF4F4
:10312000E135466960232A463846B047A06C0168FD
:10313000152088473846FFF735F93B493846FFF7F1
:1031400037F960695021426C38469047606C81695C
:103150003248401C8847606C81693148401C884770
:10316000206A816E4FF001108847206A816E2F48D7
:103170008847206A0321426D2D489047606C006E9D
:103180008047014660692A462A4D466960232846E1
:10319000B047A06C0168162088472846FFF702F95F
:1031A00025492846FFF704F960695021426C2846FA
:1031B0009047606C81691948001D8847606C81697F
:1031C0001748401D8847206A816E1C488847206A3E
:1031D000816E1B488847206A3021426D194890470C
:1031E000606C006E804701466069184E6023456937
:1031F000154A3046A847A06C01684D2088473046E4
:10320000FFF7D0F812493046FFF7D2F86069502135
:10321000426C3046BDE8F04110470000000800F065
:10322000001800F000C00040151800000104010063
:103230000050004000D000403D2300000110040079
:10324000011404000040024020A1070000100140CA
:1032500071230000FDF75AFE044908704FF47A60AC
:1032600003461A46114600F067F9FEE76C06002097
:103270002DE9F04F9C482DED028B0146C379487A29
:103280000A7A9A4943B112B120B103200CE060B927
:10329000012009E0022007E012B130B9042003E068
:1032A00008B1052000E0062048704D7890489FED59
:1032B000910A924ED0ED000A924F9B4830EE807AF0
:1032C000D6ED000AD0ED001ADFF840C270EE804A59
:1032D000D7ED000A9548DFF83C8230EE803ADCED0D
:1032E000000A90ED001ADFF83092DFF830A2DFF824
:1032F00030B28F4870EE806A98ED008A99ED004AEE
:10330000DAED005ADBED002AD0ED000ADFF814E216
:10331000884877EE087A34EE846A33EE255A76EEE2
:10332000A23A7549764A784B794C9EED002A00887E
:10333000072D76D2DFE805F0CD04294E769DD10029
:1033400000EE100AB8EE400A37EE000ABCEEC00AE2
:1033500081ED000A00EE100AB8EE400A34EE800A51
:10336000BCEEC00A82ED000A00EE100AB8EE400A78
:1033700033EE000ABCEEC00A83ED000A00EE100A2C
:10338000B8EE400A36EE800A9FE000EE100AB8EE72
:10339000400A37EE800ABCEEC00A81ED000A00EE5A
:1033A000100AB8EE400A36EE000ABCEEC00A82ED02
:1033B000000A00EE100AB8EE400A35EE000ABCEE34
:1033C000C00A83ED000A00EE100AB8EE400A33EEA0
:1033D000800A7AE000EE100A37EE822A76EE211A91
:1033E000B8EE400A35EE011A73EEA00A32EE000A7A
:1033F000BCEEC00A81ED000A00EE100AB8EE400AE9
:1034000031EE800ABCEEC00A82ED000A00EE100A1E
:10341000B8EE400A31EE000ABCEEC00A83ED000AA5
:103420004DE056E000EE900A38EE001AF8EE600A21
:1034300071EE200A34EE001AFCEEE00AC1ED000A3B
:1034400000EE900AF8EE600A71EE200A35EE801A5E
:10345000FCEEE00AC2ED000A00EE900AF8EE600A07
:1034600071EE200AFCEEE00AC3ED000A72EE800A5B
:1034700025E072EE002A02EE100A70EE800AB8EE25
:10348000422A32EE822ABCEEC22A81ED002A31EEB7
:10349000802A01EE900AF8EE611A72EE211AFCEE13
:1034A000E11AC2ED001A71EE001A01EE100AB8EE30
:1034B000411A31EE811ABCEEC11A83ED001A00EEFA
:1034C000100AB8EE400A30EE800ABCEEC00A84ED65
:1034D000000ABDEC028BBDE8F08F00F57A60086051
:1034E000106018602060F4E76C06002020010020C6
:1034F0006C00002000007A452C01002070000020A4
:1035000030010020740000203401002078000020E9
:10351000380100207C000020800000208400002072
:10352000880000208C0000209000002094000020E3
:1035300098000020020000202DE9F0410C4642F6E0
:10354000F8211E461546884200D908468C4200D90B
:103550000C468D4200D90D468E4200D90E464FF4DE
:103560007A61884200D208468C4200D20C468D42D5
:1035700000D20D468E4200D20E464FF08077DFF823
:103580003880396B024640460B6840219847386BBB
:1035900022464121036840469847386B2A468221DB
:1035A000036840469847386B32468321036840469B
:1035B000BDE8F041184700000080024010B5094CFA
:1035C000002204212046FDF7B3FE002208212046F8
:1035D000FDF7AEFE20460222BDE810401146FDF781
:1035E000A7BE0000005002401A4810B590ED000A36
:1035F0001948B0EEC00A10EE101A814210DC1749CB
:1036000091ED000AB0EEC00A10EE101A814207DCFC
:1036100013480088782803D81248007B012818D165
:1036200011494878401CC0B24870032811D10020CD
:103630004870FFF7C3FF4FF47A6003461A461146FD
:10364000FFF77AFF4FF08070806C8068BDE8104013
:10365000004710BD900100200000F04194010020BF
:103660004E0100206C0600201C01002045484749FF
:1036700090ED000A444880ED000A91ED000A4449AB
:1036800080ED010A91ED000A424980ED020A91EDB8
:10369000000A414980ED030A91ED000A3F4980ED9F
:1036A000040A91ED000A3E4980ED050A91ED000AF9
:1036B0003C4980ED060A91ED000A3B4980ED070A7E
:1036C00091ED000A394980ED0B0A91ED000A384965
:1036D00080ED0C0A91ED000A364980ED0D0A91ED5E
:1036E000000A354980ED0E0A91ED000A334980ED5C
:1036F0000F0A91ED000A324980ED100A91ED000A9F
:10370000304980ED110A91ED000A2F4980ED120A2F
:1037100091ED000A2D4980ED130A91ED000A2C4924
:1037200080ED140A91ED000A2A4980ED150A91ED09
:10373000000A294980ED160A91ED000A274980ED1B
:10374000170A91ED000A264980ED1A0A91ED000A48
:10375000244980ED180A91ED000A234980ED1B0AE7
:1037600091ED000A214980ED190A742291ED000AB9
:10377000002180ED1C0A4FF08070006F436B0248FF
:1037800018470000540000207C060020580000204C
:10379000040000200C000020140000201C00002069
:1037A000240000202C000020080000201000002031
:1037B00018000020200000202800002030000020F9
:1037C00034000020380000203C0000204800002089
:1037D0004C00002050000020400000204400002049
:1037E0009C000020A0000020A4000020A8000020D1
:1037F00000C000401500000000D00040160000008E
:1038000000E000403100000000F000404B000000EC
:10381000000001404C000000001001404D0000007D
:10382000002001404E000000003001404F00000029
:1038300000C000401500000000D00040160000004D
:1038400000E000403100000000F0004048000000AF
:103850000000014049000000001001404A00000043
:10386000002001404B000000003001404C000000EF
:103870000007000000060000000500000004000032
:103880000003000000020000000100000000000032
:103890000000000018ED00E01CED00E020ED00E06D
:1038A00000E400E004E400E008E400E00CE400E0F0
:1038B00010E400E014E400E018E400E01CE400E0A0
:1038C00020E400E024E400E028E400E02CE400E050
:1038D00030E400E034E400E038E400E03CE400E000
:1038E00040E400E044E400E048E400E04CE400E0B0
:1038F00050E400E054E400E058E400E05CE400E060
:1039000060E400E064E400E068E400E06CE400E00F
:1039100070E400E074E400E078E400E07CE400E0BF
:1039200080E400E084E400E088E400E000E100E0FE
:1039300004E100E008E100E00CE100E010E100E05B
:1039400080E100E084E100E088E100E08CE100E05B
:1039500090E100E000E200E004E200E008E200E0C4
:103960000CE200E010E200E080E200E084E200E02F
:1039700088E200E08CE200E090E200E06B705F70B3
:10398000697463683A252E326620206B695F70691E
:103990007463683A252E346620206B705F675F7011
:1039A000697463683A252E326620206B695F675F11
:1039B00070697463683A252E326620206B645F67F5
:1039C0005F70697463683A252E32660A0000000051
:1039D0006B705F726F6C6C3A252E326620206B69BB
:1039E0005F726F6C6C3A252E346620206B705F67B7
:1039F0005F726F6C6C3A252E326620206B695F67B0
:103A00005F726F6C6C3A252E326620206B645F67A4
:103A10005F726F6C6C3A252E32660A006B705F79AC
:103A200061773A252E326620206B695F7961773A9B
:103A3000252E346620206B705F675F7961773A25A9
:103A40002E326620206B695F675F7961773A252E99
:103A5000326620206B645F675F7961773A252E328A
:103A6000660A0000843A0000000000206C06000096
:103A7000B20900009C3A00006C060020C40200005D
:103A80003824000004FF1E0064016A05FF1027109F
:0C3A90002701FF01FF01FF01FF91000072
:040000050000026D88
:00000001FF
